S01E0000626C655F626172656D6574616C5F656B5F72613477312E737265638A
S3150000000058BA0020FD640000A9630000F9640000EE
S31500000010F9640000F9640000F9640000F964000066
S31500000020000000000000000000000000F96400006D
S31500000030F964000000000000F9640000F9640000A3
S31500000040E9530000A94C0000254C0000354D000086
S31500000050714D0000E953000035570000696100004A
S31500000060000000000000000000000000000000008A
S31500000070000000000000000000000000000000007A
S31500000080000000000000000000000000000000006A
S31500000090000000000000000000000000000000005A
S31500000400FFFFFFFFDFAEFFFFFCFFFF00FFFFFF0068
S31500000410FCFFFF00FFFFFF00FCFFFF00FFFFFF00E8
S31500000420FCFF0F20FFFF0F20FCFF7F40FFFF7F40F8
S31500000430FCFF0D40FFFF0D40FFFFFFFFFFFFFFFF2B
S31500000440FFFFFFFFFFFFFFFFFFFFFFFFFFFFFFFFB6
S31500000450FFFFFFFFFFFFFFFFFFFFFFFFFFFFFFFFA6
S31500000460FFFFFFFFFFFFFFFFFFFFFFFFFFFFFFFF96
S31500000470FFFFFFFFFFFFFFFFFFFFFFFFFFFFFFFF86
S31500000480FFFFFFFFFFFFFFFFFFFFFFFFFFFFFFFF76
S31500000490FFFFFFFFFFFFFFFFFFFFFFFFFFFFFFFF66
S315000004A0FFFFFFFFFFFFFFFFFFFFFFFFFFFFFFFF56
S315000004B0FFFFFFFFFFFFFFFFFFFFFFFFFFFFFFFF46
S315000004C0FFFFFFFFFFFFFFFFFFFFFFFFFFFFFFFF36
S315000004D0FFFFFFFFFFFFFFFFFFFFFFFFFFFFFFFF26
S315000004E0FFFFFFFFFFFFFFFFFFFFFFFFFFFFFFFF16
S315000004F0FFFFFFFFFFFFFFFFFFFFFFFFFFFFFFFF06
S3150000050010B5054C237833B9044B13B10448AFF347
S3150000051000800123237010BD780200200000000037
S31500000520B8D0030008B5034B1BB103490348AFF32A
S31500000530008008BD000000007C020020B8D0030047
S31500000540164B0022C3E90022C3E90222C3E90422B2
S315000005509A61F8B1F0B542790379C478857846781E
S31500000560077887B049B1012916D00D48DFF840C099
S3150000057002290CBF0146614600E00A490094CDE914
S315000005800371CDE901560849044838F065FC034873
S3150000059007B0F0BD014870470449EFE79402002018
S315000005A0A4980300A8980300B4980300B098030029
S315000005B0AC980300F0B5002383B00D4613801149B3
S315000005C0144638F095FCB8B10E4E0FE038F070FDC9
S315000005D02388E85423885A1CEB5C314600200BB96B
S315000005E0019F5FB9228038F083FC28B12388312B24
S315000005F04FF0000201A9E9D903B0F0BD238003B092
S31500000600F0BD00BFD898030070B50D46094938F013
S315000006106FFC70B1074EAC1D0021102238F048FD6A
S31500000620314604F8010D002038F062FC08B1AC42F6
S31500000630F2D170BDDC98030008B507F0D1FB18B9FC
S31500000640064B01221A7008BD0146054801F01CFD43
S3150000065002F00EFA014B00221A7008BD2903002091
S31500000660E0980300F0B54E6885B00C460746604931
S31500000670304638F011FC38B9062F28D021685D487D
S3150000068001F002FD05B0F0BD5B49304638F004FCD0
S31500000690054638B9062F56D02168584801F0F4FCB3
S315000006A005B0F0BD5649304638F0F6FB0546002841
S315000006B042D05449304638F0EFFB0546002879D140
S315000006C0052F7CD02168504801F0DEFCDAE70546AC
S315000006D002460146A06838F0EBFC2A462946064643
S315000006E0E06838F0E5FC2A4683B229462069ADF871
S315000006F00430ADF8063038F0DBFC2A4603462946BE
S315000007006069ADF8083038F0D3FC2A4607464FF04A
S31500000710FF35B0B201AB0121ADF80A70039507F0C1
S3150000072047FB0028AED002466168384801F0ACFCB1
S3150000073002F09EF905B0F0BD042F27D02168344899
S3150000074001F0A2FC9EE702460146A06838F0B0FC24
S315000007502A4606462946E06838F0AAFC2A46034699
S31500000760294620698DF8043038F0A2FC2946034654
S315000007702A4660698DF8053038F09AFC01A9C3B2A3
S31500000780B0B2ADF8063007F01FFBCAE702460146D5
S31500000790A06838F08DFC2A4603462946E0688DF8A5
S315000007A0043038F085FC034601A88DF8053007F0C3
S315000007B00DFBB6E72168174801F066FC62E70246C2
S315000007C00146A06838F074FC2A4606462946E068C9
S315000007D038F06EFC2A460346294620691D4638F045
S315000007E067FC0246A9B2B0B292B207F0E9FA98E7FE
S315000007F008990300109903007099030040990300BB
S315000008006C990300A4990300B0990300089A0300A9
S3150000081074990300E499030070B54E6882B00C46E3
S3150000082005463949304638F037FB48B9042D38D0EB
S315000008302168364801F028FC02F01AF902B070BDB2
S315000008403349304638F028FB00BB042D46D16D46AF
S31500000850A0682946FFF7D8FEE6682E49304638F0EC
S315000008601BFB002847D101238DF8063029460122BB
S31500000870022007F0B3FA0028E0D002466168264855
S3150000088001F002FC02F0F4F802B070BD23493046D4
S3150000089038F002FB40BB01460122032007F09EFA16
S315000008A0E9E76D46A0682946FFF7AEFEE6681949F6
S315000008B0304638F0F1FA68B11949304638F0ECFAAA
S315000008C00028B5D18DF8060001222946104607F00A
S315000008D085FAD0E701238DF80630F5E721680B4845
S315000008E001F0D2FB02B070BD21680E48324601F01D
S315000008F0CBFB02B070BD0A49304638F0CDFA00286D
S3150000090096D18DF80600B1E7389A03003C9A0300A9
S315000009105C9A0300B0980300689A0300609A03008B
S31500000920A8980300E499030007F05EBA70B54E6814
S3150000093082B00C4605463D49304638F0ADFA48B916
S31500000940042D2AD021683A4801F09EFB02F090F867
S3150000095002B070BD3749304638F09EFA002844D1BF
S31500000960AB1E012BEED8022D4CD1334B1B684FF634
S31500000970FF7298B290424ED007F03AFA2F4B0122FE
S315000009801A700028E4D0666802462D48314601F008
S315000009907BFB02F06DF802B070BDA0686946FFF7F8
S315000009A033FEE5682749284638F076FA30B32649FB
S315000009B0284638F071FA0028C4D18DF806000122C5
S315000009C06946104607F00AFA2049214B2148224A77
S315000009D00B600023C1E902330B82006801238B748C
S315000009E0137003F06DFD80B2CBE721681B483246D9
S315000009F001F04AFB02F03CF802B070BD01238DF80D
S31500000A000630DCE702460146A06838F051FB80B2AA
S31500000A1007F0EEF9B5E7B0EB134F4FEA134201D1F9
S31500000A200E22B2E7104607F0E3F9AAE7949A03000C
S31500000A303C9A03009C9A0300F8000020280300203B
S31500000A40A49A0300B0980300A8980300D4000020DD
S31500000A50C800002068B9030027030020E4990300BA
S31500000A602DE9F0410C4CDFF8348004F146074FF6CF
S31500000A70FF7634F8025CB542204607D0A179FFF72D
S31500000A805FFD29460246404601F0FEFA0A34BC42A2
S31500000A90EFD1BDE8F08100BFB2020020D09A03007A
S31500000AA02DE9F043062887B00C460FDC4E686A49EC
S31500000AB00546304638F0F0F900284ED067493046F2
S31500000AC038F0EAF9074650B9032D5CD0216864482E
S31500000AD001F0DAFA01F0CCFF07B0BDE8F083614916
S31500000AE0304638F0D9F900285CD05F49304638F0F6
S31500000AF0D3F902460028EFD1A768ADF80C00012310
S31500000B000DF104085949059238468DF80E30CDF896
S31500000B10108038F0C1F9002853D05549384638F0CE
S31500000B20BBF9002851D1032D5FDDD4F80C90514953
S31500000B30484638F0B1F908B9062D5FD04E49484607
S31500000B4038F0AAF900284AD103238DF80D304B4B13
S31500000B5003A9186802F0C4FABEE702460146A06877
S31500000B6038F0A6FA454B81B2186802F0A3FA82B2B1
S31500000B70002AB1D06168424801F086FA01F078FF98
S31500000B8007B0BDE8F08301460A22A06838F090FA63
S31500000B903C4B01463A46188807F042F90246002ABD
S31500000BA09AD0E7E73849A06838F076F9354B011E48
S31500000BB018BF0121188807F035F90246002A8BD0A4
S31500000BC0D8E703238DF80C30C1E72B49384638F0B7
S31500000BD063F950B940F20333ADF80C30B7E72B494F
S31500000BE0484638F059F90028B1D0216828483B46D4
S31500000BF0324601F049FA01F03BFF6DE720694146B4
S31500000C00FFF702FD65692349284638F045F990B992
S31500000C1001238DF80A3001231E498DF80D30284630
S31500000C2038F03AF90499B0FA80F0400988712069E1
S31500000C30FFF7EAFC8BE71849284638F02DF910B97A
S31500000C408DF80A00E7E7D4E901232168104801F08E
S31500000C501BFA01F00DFF3FE720B60300EC9A0300F4
S31500000C603C9A0300F49A03005C9A0300009B03007D
S31500000C70089B0300109B0300189B030068B9030040
S31500000C80289B030094000020FC9A03001C9B030091
S31500000C90E4990300B0980300A8980300F0B54F68E4
S31500000CA087B00D4606463B49384638F0F5F890B908
S31500000CB0042E04463CD0A868374938F0EDF8374B87
S31500000CC0B0FA80F252091868214602F0D7F982B2CA
S31500000CD002BB07B0F0BD3249384638F0DDF80028CF
S31500000CE03FD1042E1ED102AFA8683946FFF78CFC0F
S31500000CF0EC682C49204638F0CFF8002839D18DF819
S31500000D000E00002239460123022007F073F802463E
S31500000D10002ADED06968244801F0B6F901F0A8FE81
S31500000D2007B0F0BD2968214801F0AEF907B0F0BD63
S31500000D30AE68304638F0C2F8202824D102AF00E071
S31500000D40AE6836F81430ADF804301022002101A840
S31500000D5038F0AEF938550134102CF1D1E8683C462C
S31500000D60AAE72968114801F08FF901F081FE07B062
S31500000D70F0BD0F49204638F08FF80028D2D1012364
S31500000D808DF80E30BDE70B4801F07EF901F070FEDC
S31500000D909FE700BF549B0300749B030068B90300E0
S31500000DA0789B0300A8980300809B03003C9A0300ED
S31500000DB0B0980300589B030006F0FEBF07F00CB87E
S31500000DC070B5022882B00D4637D000F18043013B52
S31500000DD00446274955F8230038F05EF8C0B9042CBC
S31500000DE04FF0010618D0234C00232382224B234ABE
S31500000DF020491068224AA67400251D704FF480739E
S31500000E00E360226003F05CFB81B221BB02B070BDDF
S31500000E10032C4FF00006E6D1002211466868154CF7
S31500000E2038F046F92075A86816490DF10602FFF755
S31500000E30C1FBBDF806302382D8E74C68124920462C
S31500000E4038F02AF870B10A49204638F025F8B0FA89
S31500000E5080F67609C7E70D4801F016F901F008FE9D
S31500000E6002B070BD01F004FE06F0B6FF0146CCE705
S31500000E70B49B0300D40000202703002068B90300B8
S31500000E80BC00002000030020AC9B0300B89B0300BD
S31500000E900C4B018810B5002204460B481A7001F06D
S31500000EA0F3F80A4A2088136899B288420BBF6FEAA2
S31500000EB013436FEA03436FEA03436FEA1343136076
S31500000EC010BD00BF27030020E49B0300F8000020AC
S31500000ED0022808B507D009680C4801F0D5F8BDE826
S31500000EE0084001F0C5BD00224868114638F0E0F818
S31500000EF0132180B206F066FF00B908BD014604481A
S31500000F0001F0C2F8BDE8084001F0B2BD3C9A03000A
S31500000F10F89B0300032838B50C4607D00968124829
S31500000F2001F0B2F8BDE8384001F0A2BD0F4D4868A7
S31500000F302946FFF769FBA0680D4937F0ADFF0D4A5A
S31500000F400D490346B3FA83F35B091068AB7102F0EF
S31500000F50BBFD83B203B938BD1946084801F094F8C1
S31500000F60BDE8384001F084BD3C9A0300F802002039
S31500000F70B098030068B9030010000020249C030009
S31500000F8003282DE9F0410C4644D18E6851490546A7
S31500000F90304637F081FFD0B965684F49284637F0AB
S31500000FA07BFF00285FD04D49284637F075FF0028A3
S31500000FB052D04B49284637F06FFF00286BD049497D
S31500000FC0284637F069FF00286FD0BDE8F0816768D2
S31500000FD04149384637F060FF20BB05464249304656
S31500000FE037F05AFF00284DD04049304637F054FFBD
S31500000FF000283FD12946012006F002FF0346002BB8
S31500001000E3D0D4E901123A4801F03EF8BDE8F041D8
S3150000101001F02EBD0968374801F036F8BDE8F04109
S3150000102001F026BD2D49384637F036FF78B32C49F6
S31500001030384637F031FF60B32A49384637F02CFF7F
S315000010400028CBD021682C4833463A4601F01CF8DC
S31500001050BDE8F04101F00CBD284B2949186802F0A3
S3150000106039FA83B2CBE7254B2649186802F0A4F972
S3150000107083B2C4E72168204833463A46BDE8F041CA
S3150000108001F002B8284606F08BFE0346B7E70125B5
S31500001090A4E70225A2E7194A1B4910684FF4C0735A
S315000010A08B6002F09DFA83B2A9E7174D174EE881CF
S315000010B04FF48073AB600FCD0FC695E807000F4B5A
S315000010C086E807001868A6F1100102F0CDFA83B28F
S315000010D095E700BF20B60300509C0300589C030010
S315000010E05C9C0300689C0300AC9B0300789B030098
S315000010F0749C03003C9A0300E499030068B903005A
S315000011002C000020500000207800002098000020CD
S31500001110F0B541F22B13984291B0144634D841F2FF
S31500001120011398423ED9A0F588500238292847D89D
S31500001130DFE810F0480046004600E401E001460002
S31500001140DC01D801FE014600E801460045011F0109
S31500001150660146006201460046004600460046001B
S315000011605001460046004C0110028C014600460024
S31500001170460002021B014600460046001401ED002F
S31500001180D300CC004600B900A0F5A050023883B2C7
S31500001190062B15D8062813D8DFE800F07D6F6512F8
S315000011A058542A0041F20203984200F03E8241F26E
S315000011B00403984204D1A74D2B78012B00F0058239
S315000011C011B0F0BD52681378012B00F04482022B57
S315000011D000F03D82002BF3D1536899785868FFF7E9
S315000011E0AFF901469C4811B0BDE8F04000F04CBF95
S315000011F09A4800F049FF63689948DC68E57BA37864
S31500001200627821780C95A57B0B95657B0A95257BE5
S315000012100995E57A0895A57A0795657A0695257A5A
S315000012200595E5790495A57903956579029525795E
S315000012300195E478009400F027FF11B0BDE8F04076
S3150000124001F016BC874800F01FFFF6E7864800F05D
S315000012501BFF64688548E37AA27A617A247B00944E
S3150000126000F012FFE9E7824800F00EFF6368814A4A
S315000012701C88596880481480B5E7804800F004FF50
S3150000128063687F485A68198800F0FEFE11B0BDE811
S31500001290F04001F0EDBB7B4800F0F6FE6268754B4E
S315000012A012881A808CE7784800F0EEFE01F0E0FB29
S315000012B0764B1B78022B83D10022114610464FF441
S315000012C0804311B0BDE8F04006F08CBD704800F0D8
S315000012D0DBFE6068FFF7DCFDAFE76E480F9100F0BC
S315000012E0D3FE0F990029A8D16B4800F0CDFE6068A7
S315000012F0FFF7CEFD694B1B78012B9ED1684B5888B2
S315000013004FF6FF73984298D006F072FD95E75F4D51
S3150000131003232B70002940F09481624800F0B4FE4C
S3150000132064686148218800F0AFFE5D4A1368591C65
S3150000133000F0B78198B24FF6FF7188424FEA134525
S3150000134000F0BB818D427FF478AF218881423FF463
S3150000135074AF9BB243EA014313606EE7002940F085
S315000013606C81524800F090FE67E7536850481A882F
S315000013708AE750480F9100F087FE0F9900297FF405
S315000013805CAF4D4D60682B464FF6FF741A88A2423B
S3150000139003F10A0300F08B8101310729F6D14826B3
S315000013A01C225318048825F81340C378032B00F237
S315000013B08881DFE813F0FB00E500FB00E50000296B
S315000013C03FF4FEAE3D4800F05FFE36E753683C480A
S315000013D01A8859E754683B48228800F055FE618810
S315000013E0394800F051FEA188384800F04DFEE188EA
S315000013F0374800F049FE20E7364800F045FE1CE776
S3150000140054682D4D344800F03FFE26882A460023B6
S3150000141003E00133072B3FF410AF1188B14202F10C
S315000014200A02F6D103EB83035F0005EB4303B81C06
S31500001430197A2844FFF784F8A378024631462748EC
S3150000144000F022FE4FF6FF73EB53F6E6244800F059
S315000014501BFEF2E629030020D4AF03006CA20300B2
S3150000146094A2030054A30300E0A2030014A3030004
S3150000147038A20300940000205CA20300E8A1030048
S3150000148014A20300BCA10300D0A40300270300207C
S3150000149080A5030038A503006CA5030028030020DF
S315000014A0F80000200CA50300E49B030094A40300AD
S315000014B0EC9F0300049E0300B0020020609E030020
S315000014C0089F0300A0A00300F0A0030008A10300EA
S315000014D020A10300B4A30300989E0300CC9E030042
S315000014E0F0A303007A4800F0CFFDA6E6794800F0A5
S315000014F0CBFDA2E6536878481A78C5E65368774864
S315000015001A78C1E6764800F0BFFD764B1B78032BB0
S315000015107FF456AE74490122022006F05FFC734A3E
S3150000152071490123022011B0BDE8F04006F066BC07
S3150000153053686F485A78A7E654686E48228800F0C8
S31500001540A3FDA1786C4800F09FFDE1786B4800F0A0
S315000015509BFD72E654686A48228800F095FD618812
S31500001560684800F091FDA188674800F08DFDE1888C
S31500001570664800F089FD2189654800F085FD5CE636
S315000015800346A81953F8044FAC5111449B88838035
S3150000159005EB410335F8114001211972FEF7D0FF22
S315000015A0214602465B4800F06FFD46E603460A44C4
S315000015B053F8041FA951A8199B88838005EB4203A1
S315000015C0002135F812401972E8E75468524800F0D5
S315000015D05BFDA17A514800F057FDA189504800F003
S315000015E053FDA17B4F4800F04FFD618A4E4800F045
S315000015F04BFD218A4D4800F047FD4D4800F044FD63
S31500001600E1794C4800F040FD217A4B4800F03CFD62
S31500001610617A4A4800F038FD08F02CFC014648483B
S3150000162000F032FD00232B7007E646484622FF21D4
S3150000163011B0BDE8F04037F03DBB434800F024FD53
S31500001640FBE5424800F020FD00232B70F5E55368CA
S315000016503F481988C7E55468224D2179A068FEF7EE
S315000016606FFF638AA27B01463A4800F00DFD2B7896
S31500001670012B7FF4A5ADA67BFF2E3FF4A1AD628AB8
S31500001680002A3FF49DADA26817491068086090884B
S315000016908880164A207988710224184616702C70A4
S315000016A041E721881B0C1B040B431360C5E501EBC6
S315000016B08106760002368A0073E62188A942F1D1B6
S315000016C0BBE5114405EB4103A819197A66E700BF8B
S315000016D060A403002CA4030078A1030038A1030032
S315000016E084A303002703002020030020F602002025
S315000016F08CA5030034A0030078A003008CA003008F
S31500001700549F03009C9F0300B09F0300C49F0300E7
S31500001710D89F0300349E0300A49C0300C09C0300D2
S31500001720E09C0300009D0300209D0300409D0300F4
S31500001730609D0300749D0300949D0300B49D030007
S31500001740D49D0300B0020020B0A4030020A503002E
S31500001750E49B0300F49D0300014B186802F05EB998
S3150000176068B90300054A064B10B514681968204687
S3150000177002F080F90023236010BD00BF68B90300A2
S315000017802C03002010B54C6823786F2B0ED163789C
S315000017906E2B0BD1A3784BB9144A1548137000F081
S315000017A073FCBDE81040134800F06EBC1249204699
S315000017B037F072FB60B11149204637F06DFB80B9F6
S315000017C00A4B1B7843B1BDE810400D4800F05CBCE5
S315000017D0064B01221A7010BDBDE81040094800F002
S315000017E053BCBDE8104001F04BB900BFFC0000201F
S315000017F020AB030060AB0300ACAB0300B0AB03004F
S31500001800B4AB0300709D030008B1014B186070472C
S315000018102C03002070B5022882B00D4620D0072880
S3150000182018D16E4600234A680093B38014786F3C43
S315000018300BD0002C0CBF012300238DF8003027D0DD
S31500001840304606F05BFB02B070BD54786E3C08BFB4
S315000018509478EEE70968224800F016FC02B070BDE5
S315000018606E4600234A680093B38013786F3B05D019
S31500001870B3FA83F35B098DF80030E1E753786E3BEA
S3150000188008BF9378B3FA83F35B098DF80030D7E786
S3150000189022462146A86837F00BFC2246034621461D
S315000018A0E8688DF8013037F003FC224603462146EE
S315000018B028698DF8023037F0FBFB224603462146A5
S315000018C068698DF8033037F0F3FB2246034621465C
S315000018D0A8698DF8043037F0EBFB8DF80500AFE70B
S315000018E060AD0300F0B5031F012B83B00C463FD853
S315000018F0064648680278642A24D0204937F0CCFA94
S31500001900002835D1A7681E490546384637F0C4FA7F
S3150000191030BB01238DF80630E0681A4F6946FEF7A2
S3150000192073FE0023052E3B7006D11749206937F058
S31500001930B3FAE8B901233B706946284606F0E0FA97
S3150000194003B0F0BD4278662AD7D182780125002AF5
S31500001950D3D1A7680A49384637F09EFA0028D8D06E
S315000019600A49384637F098FA10B98DF80600D3E7D9
S315000019702168074800F088FB03B0F0BDA4AD030062
S31500001980B098030030030020ACAD0300A898030014
S3150000199080AD030006F0AABA06F0A8BA01280ADD4F
S315000019A008B500224868114637F082FBBDE80840BA
S315000019B080B206F0AFBA0968014800F065BB00BF07
S315000019C060AD0300022803D00968074800F05CBB3D
S315000019D008B500224868114637F06AFBBDE80840A2
S315000019E0C0B206F091BA00BF60AD0300022803D072
S315000019F00968074800F048BB08B500224868114648
S31500001A0037F056FBBDE80840C0B206F075BA00BF15
S31500001A1060AD0300032870B50C462DD148680378E5
S31500001A20642B15D0174937F037FA28BBA668164934
S31500001A300546304637F030FAC0B11449304637F023
S31500001A402BFAC8B901462846BDE8704006F05ABAD6
S31500001A504378662BE6D183780125002BE2D1A66870
S31500001A600949304637F018FA0028E6D12846012100
S31500001A70BDE8704006F046BA21680548BDE87040EA
S31500001A8000F002BBA4AD0300B0980300A8980300C1
S31500001A9080AD030010B5032882B00C4607D0096854
S31500001AA00D4800F0F1FA00F0E3FF02B010BD00228D
S31500001AB01146606837F0FCFA002203461146A0681A
S31500001AC08DF8043037F0F4FA034601A88DF8053096
S31500001AD006F00AFA02B010BDB4AD030010B508282E
S31500001AE082B00C4607D00968214800F0CDFA00F014
S31500001AF0BFFF02B010BD00221146606837F0D8FA69
S31500001B00002203461146A0688DF8003037F0D0FA5F
S31500001B10002203461146E0688DF8013037F0C8FA16
S31500001B2000220346114620698DF8023037F0C0FACC
S31500001B3000220346114660698DF8033037F0B8FA83
S31500001B40002203461146A0698DF8043037F0B0FA3A
S31500001B50002203461146E0698DF8053037F0A8FAF1
S31500001B6003466846ADF8063006F0BCF902B010BD73
S31500001B70B4AD0300022803D00968074800F084BA10
S31500001B8008B500224868114637F092FABDE80840C9
S31500001B9080B206F0AFB900BFD8AD0300032810B578
S31500001BA00C4605D0BDE8104009680A4800F06CBA3A
S31500001BB000221146606837F07BFA00220346114680
S31500001BC0A0681C4637F074FAC1B2A0B2BDE8104056
S31500001BD006F08EB9D8AD0300002801DD06F09EB9E7
S31500001BE00968014800F050BA60AD030070B50D46B3
S31500001BF01646C1B2734A338852F8211082B00446A1
S31500001C002A46714800F040FAC5B9A4F500400138EB
S31500001C100E2843D8DFE810F0440057006F000F008D
S31500001C2075001700770079008700A200B000C30096
S31500001C3042004200D000654800F026FA02B0BDE836
S31500001C40704000F015BF746861482188614E624D8E
S31500001C5000F01AFA6188614800F016FA94F9042037
S31500001C605F4836EA220128BF294600F00DFA94F9AA
S31500001C7005205C4836EA220128BF294600F004FA0E
S31500001C8094F90620584836EA220128BF294600F072
S31500001C90FBF994F904307F2B00F0928002B070BDFE
S31500001CA074685248218800F0EFF994F902204949F6
S31500001CB0494B4F4831EA220128BF194602B0BDE818
S31500001CC0704000F0E1B9746848482188414E424DA1
S31500001CD000F0DAF994F90220454836EA220128BFD5
S31500001CE0294600F0D1F994F90320424836EA220148
S31500001CF028BF2946E2E7404802B0BDE8704000F040
S31500001D00C3B93E48F8E73E48F6E773683D4A197896
S31500001D103D4B3E4800290CBF1146194602B0BDE8AE
S31500001D20704000F0B1B93A4B1B78002BB6D0394859
S31500001D3000F0AAF94FF6FF730193019B5A1E019218
S31500001D402BB100BF019B5A1E0192002BF9D14FF017
S31500001D50FF3002B0BDE8704002F0AEBC7468E179B5
S31500001D60601CFEF7EDFB24782B4A2C4B0146002C19
S31500001D7018BF1A462A48A1E775682A4800F084F970
S31500001D802B7853B1284E00246B683046195D00F05D
S31500001D907BF92B780134A342F6DC2448ACE774685F
S31500001DA0184B2178184A2248002918BF1A4600F015
S31500001DB06BF961681F48B1E773681F481978ADE78A
S31500001DC01E4899E738B7030020AE0300A0AE030013
S31500001DD0D8AE0300FCAD0300DCA20300F0AE0300A6
S31500001DE008AF03001CAF030030AF030040AE030092
S31500001DF054AE03006CAE030084AE0300BCAE030019
S31500001E0074AF0300ACAB030070B203009CAF0300D9
S31500001E1030030020ACAF030000AE030014AE030095
S31500001E20C8AF0300D8AF0300E4AF030068A5030002
S31500001E30ECAF030004B0030014B0030044AF03008A
S31500001E400F4B10B4DA7859788A421A7802D09C7807
S31500001E50944211D09C183F2A207105D001321A7085
S31500001E6000205DF8044B7047002081F001011870D6
S31500001E705DF8044B597070474FF0FF30F1E700BF33
S31500001E808C030020104B1A786AB1104A52681278F7
S31500001E9000211970092A06D8DFE802F00A0E0505A6
S31500001EA01205050505067047094B5879FFF7C8BFA7
S31500001EB0084B5879FFF7C4BF074B5879FFF7C0BFE7
S31500001EC0064B5879FFF7BCBF8503002030BB0300E3
S31500001ED0200107400000074020000740800007401F
S31500001EE00379042B04D0102B02D0022B07D07047A5
S31500001EF00649074A01230B701370FFF7C3BF054954
S31500001F00054B0120002208701A70704785030020D7
S31500001F10860300208403002087030020014B1878E5
S31500001F20704700BF86030020014B1870704700BF42
S31500001F3086030020014B1878704700BF87030020F6
S31500001F400B4B0C489A680C49126870B50B4E0C4D39
S31500001F5000243470047001200870D3E900012C704D
S31500001F60904721464422074836F0A4FE70BD00BFC4
S31500001F7030BB030086030020840300208703002073
S31500001F80850300208C030020704700BF024B9A682F
S31500001F901868D369184700BF30BB0300F0B4384A4D
S31500001FA05378D67894780025B342057013780AD012
S31500001FB0A34204D840331B1B5BB2002B0BDC00236F
S31500001FC01846F0BC7047A342F9D31F1B7FB2AF423D
S31500001FD0F5DDA34238D013193F2C1D7914D00134F6
S31500001FE09470284C2278012AD3B221D0022B11D02A
S31500001FF0002BE4D11B2D0B7034D02B1E18BF0123F0
S3150000200005701846F0BC704786F001060023D670AE
S315000020109370E6E7A5F141020026032A4FF001037B
S3150000202088BF35460B70267088BF2B460570E8E7DB
S3150000203000235B2D23700B7004BF02232370002343
S315000020400370F0BC184670470E4C2378012BDAB2A9
S3150000205013D0022A0BD0002AB1D1FF250B70012321
S315000020600570CEE71D46012222700570C9E70122E0
S315000020700A702B4625700570C3E70D702570DEE7E4
S315000020808C030020880300200FB42DE9F04383B0B1
S315000020900AAC502254F8045B1748002136F00AFEB9
S315000020A0154801942A462346502137F037F812483E
S315000020B036F004FFC0B1114D2B78ABB1104BDFF8F1
S315000020C03890D3F808801F6804460026D8F80830F0
S315000020D02E70224649463846984750B9094B012288
S315000020E01A702B78002BFCD003B0BDE8F04304B087
S315000020F07047CD28EAD0F4E734030020840300209B
S3150000210030BB0300870300202DE9F04F85B0CDE9F1
S3150000211000320E9B039100241C600F9B1C80031E43
S315000021200293C8BFA2462CDD009B002B41D0039B27
S3150000213053F82AB0584636F0C1FE009B019C03F1C5
S31500002140FF381FFA88F304F10408074608EB8308F2
S31500002150A14654F8046B35683A462846594636F087
S31500002160B5FE034628461BB936F0A8FE87420BD0BB
S315000021704445EDD1029B0AF1010A1FFA8AFA9A45F3
S31500002180D2DB05B0BDE8F08F0E9B1E60D9F80020AB
S315000021900F9BA3F800A09368002BEBD092890AF15D
S315000021A0010ACDE90023029B1FFA8AFA9A45BBDB96
S315000021B0E7E7029B0AF1010A1FFA8AFA9A45E0DA72
S315000021C0029B0AF1010A1FFA8AFA9A45ACDBD8E7A4
S315000021D0F8B500250D600C460D49164636F088FE0A
S315000021E0306098B123680A4901332846236036F0E7
S315000021F07FFE58B1064F23685D1C46F8230039461A
S315000022002560002036F074FE0028F4D1F8BD00BF2A
S31500002210E8B8030008B5064B064800221A60FFF727
S3150000222033FFBDE8084004490448FFF72DBF00BF4F
S31500002230D003002068A50300ECB80300F0B8030043
S3150000224008B5FFF77DFE002008BD00BF08B5FFF703
S315000022509DFE002008BD00BF30B129B1034A044BE2
S315000022601060198000207047032070476006002028
S315000022705C06002008B5FFF787FE002008BD00BFFA
S315000022802DE9F04FB7B00DF131010CA8FFF786FE2E
S31500002290044640B1964D2E68BEB19DF83030033BE2
S315000022A0012B04D90024204637B0BDE8F08F9DF8F5
S315000022B03170002FF6D1B0478E482F60FFF7E4FE4D
S315000022C08D498E48FFF7E0FEEDE79DF83180B8F1C5
S315000022D0000F4AD09DF83020422A28D8402AE1D95A
S315000022E0874BDFF840C21F880593864EBCF8003046
S315000022F0082413E0082B36D0013303F0070303EB61
S315000023008305290106EB0515715611B19F4240F070
S315000023108982013C14F0FF0400F0C080412AE9D113
S31500002320082B08BF3B46013B03F00703E7E7A2F192
S315000023304303012BB6D8442A00F00482704B714A3D
S315000023401B88714D03EB830302EB03132A889C560B
S31500002350002CA8D06D480121FFF796FE2B8801338B
S3150000236034462B809FE73B46D3E79DF830700D2F10
S3150000237029D97F2F29D1644D614E2A883088614C36
S31500002380511C00EB800001EB001102EB0010C2F1C2
S315000023905002D2B22144204436F072FC5C48FFF76A
S315000023A073FE5C48FFF770FE31882B885A4801EBB4
S315000023B0810103EB01112144FFF766FE57484446AD
S315000023C0FFF762FE6FE7022F4CD84D4B4D4A198836
S315000023D04D4E059301EB810102EB011835880492FD
S315000023E018F90540090174B94E2D3FF65CAF6B1C18
S315000023F04B4808F8057039463380FFF745FE2046FE
S3150000240037B0BDE8F08F049B6C1CC5F1500201EBA0
S31500002410050C601892B20CEB0301013A184436F031
S315000024202FFC4E2D39463E489CBF348008F8057077
S31500002430FFF72AFE3648FFF727FE059B32881B88E2
S31500002440354803EB830302EB0313049A1A4411463F
S31500002450FFF71AFE3148FFF717FE0024204637B073
S31500002460BDE8F08FFB1E0A2BAFD801A252F823F06D
S31500002470A7220000A7220000CB230000CB230000E8
S31500002480CB230000D526000029250000A324000048
S31500002490CB230000CB230000A3240000ACF80030BF
S315000024A001E7174F174B13480597002604930D961F
S315000024B0FFF7EAFD3988134B01EB810103EB0111AC
S315000024C018AB1F4622A8089336F0F0FC22A83A461D
S315000024D00DA9FFF77DFE0D98B04200F341812B68F0
S315000024E0002B00F05582084B00221A80DBE600BF65
S315000024F0D003002068A50300ECB80300F0B8030081
S31500002500D6030020DC030020D8030020FCB803001B
S315000025104CB903000CB9030010B9030054B9030009
S3150000252058B90300D4030020AD4DAE4F2988059558
S3150000253001EB810107EB011122A8002604970D96F5
S3150000254036F0B4FC0EAA22A80DA9FFF741FE2B888F
S31500002550099303EB830507EB0515284636F0AEFC19
S31500002560099A93000A9328B1054415F9013C202BDA
S3150000257000F0138218AB184628220021089336F083
S3150000258099FB0D9B07930027BB429846ADF8327026
S3150000259040F08A81944B1A889246002A3FF482AE14
S315000025A0924B501E1A6880B2131F02EB8000089AE5
S315000025B053F8041F42F8041B9842F9D1189B1D6872
S315000025C0284636F07BFC5346012B064640F2258210
S315000025D0AAF102091FFA89F919ABDDF820E003EB2D
S315000025E089095EF8043F1F68002F00F0A98095F95D
S315000025F00020002A00F0048200210B4605E09142EB
S3150000260007D183B21946EA561AB17956581C0029E1
S31500002610F5D19E4228BF1E46F145E2D1B8F1000F22
S3150000262040F02E810D9B0793079B36AA02EB83038E
S3150000263053F8A40C36F042FCB04220D2311A1ED018
S31500002640DDE909736A4E03EB070C049F32884FF0ED
S31500002650000E05447346704607EB0C1C01334E2AE8
S315000026609BB205D828560CF80200013292B2A64653
S3150000267099421846F2D8BEF1000F00D03280534678
S31500002680012B40F0FF805A4C22884E2A09D8DDE9FA
S3150000269009130B44049901EB03132020511C985491
S315000026A021805448FFF7F0FC50215348FFF7ECFC1B
S315000026B05248FFF7E9FC52495248FFF7E5FC059BF3
S315000026C051481988049B01EB810103EB0111FFF7C7
S315000026D0DBFCE7E5464D2C88002C3FF4E4AD404F8B
S315000026E0404E3B8804F1FF3803EB830304EB0311F0
S315000026F008EB0310C4F15004E2B231441C0130442B
S3150000270036F0BEFA331901213B48A5F800800024B3
S3150000271083F84F40FFF7B8FC3C48FFF7B5FC3C4850
S31500002720FFF7B2FC3B882988374803EB830301EBAC
S3150000273003113144FFF7A8FC3648FFF7A5FCB2E5C4
S315000027403E4669E72A4D2C88002C3FF4ACAD2A485A
S315000027500121FFF799FC2B88013B34462B80A2E52B
S31500002760214B224A1B8812680E960DF13201019107
S315000027700EA900913946ADF83260FFF7C5FC0E9FF1
S31500002780002F00F03F81BDF832800D9EA6EB0806B3
S31500002790012E40F3F28036AB03EB88031E4953F853
S315000027A0740C36F079FB002840F0E7807968002940
S315000027B000F03A811948FFF767FC0599094A0B882A
S315000027C0013303F0070303EB83000B8002EB0010D9
S315000027D00021502236F06EFA114B08221A807EE64E
S315000027E0D6030020DC0300205C06002060060020E3
S315000027F0D803002068A50300F4B803000CB9030051
S31500002800ECB80300F0B8030010B903004CB903009C
S3150000281050B9030054B9030014B90300D4AF030040
S31500002820D403002007EB870706EB07175022002189
S315000028303846ACF8003036F03DFA2946384636F0D0
S3150000284035FB00217C48FFF71FFC7C48FFF71CFC8A
S315000028507B497C48FFF718FC059C7B48218801EBE7
S31500002860810106EB0111FFF70FFC208800EB8000C9
S3150000287006EB001036F022FB744B0024188012E59C
S315000028800020D9E672486F4EFFF7FEFB089D002434
S31500002890574655F8043B013419683046FFF7F4FBF8
S315000028A0A3B29F42F5D8FCE66A4A6B4B15681B88B3
S315000028B07FF7F8AC079A0697013AB846B9460B94E3
S315000028C09246002B43D0013B069A9BB22F1D0EA9C0
S315000028D007EB830351F82240039314E036F0EEFA37
S315000028E0D6F800B0024607462146584636F0EEFABC
S315000028F0024658461AB936F0E1FA87421AD0039BC7
S315000029000435AB4223D0D1452E682046E6D136F0B9
S31500002910D5FA21460246306836F0D8FA36AB03EBD4
S31500002920880208F101030028E9D142F8786C1FFA01
S3150000293083F8E4E7069B0799B56803F1010B1FFAD4
S315000029408BF31A468A4206939946B389B9DB434606
S315000029500B9CC246002B3FF4A5AC189B1D6828466D
S3150000296036F0ACFA4346012B064688BF4FF0000806
S315000029703FF62EAE01239A4656E63B69002B4FD012
S315000029807A692A60089A304602EB8801984714E76C
S315000029902B492C48FFF778FBA5E518AB18462822EB
S315000029A03146089336F086F90D9B0793ADF83260F1
S315000029B0002B3DD0089E284B264A00960DF1320585
S315000029C01B881268079801950EA9FFF79DFB189BB7
S315000029D0002B3FF467AC99898A4600293FF462AC24
S315000029E09B68481E80B203EB80003246043B53F8D6
S315000029F0041F42F8041B9842F9D14FF00108DDE5A7
S31500002A00164609E6059B15481988154B01EB810109
S31500002A1003EB0111FFF738FBCFE601239A46FDE5EC
S31500002A201048FFF731FBC8E60F48FFF72DFBC4E659
S31500002A304FF00108AEE500BF04B903000CB903006E
S31500002A40ECB80300F0B8030010B90300D803002067
S31500002A5068A50300600600205C06002034B9030068
S31500002A60DC03002028B903001CB90300FFF708BCEB
S31500002A70024B1B680BB1FFF7CDBB7047D00300209C
S31500002A8008B5094B09491B88094803EB830301EB89
S31500002A900311FFF7F9FA074B1B681BB1BDE80840A5
S31500002AA0FFF7B8BB08BD00BFD6030020DC0300203B
S31500002AB024990300D003002004F0DCBF20B9064BA4
S31500002AC0012283F890207047022800D070470349FE
S31500002AD0034802F087BB00BF00C07E406CBB03000A
S31500002AE07C180020014B0360704700BF80BA0300CA
S31500002AF008B5FFF7E1FF002008BD00BF2DE9F04350
S31500002B000646806885B0056830680F4671681446C9
S31500002B109946A8478046F0B9B36830681B6969468C
S31500002B209847039B1A68BA4280461CD85B6809EB33
S31500002B3007029A4217D209F1FF35ADB2B9F1000F7B
S31500002B4009D040B9234601352C44F91A5A5C03F8DA
S31500002B50012BA342FAD1B36830685B6998474046B7
S31500002B6005B0BDE8F0834FF00308F4E72DE9F04720
S31500002B70814680680D460668D9F80410D9F8000029
S31500002B80ADF5826D90461C46B04725F47F7727F059
S31500002B900307C5F30906824660B9D9F80830D9F8A3
S31500002BA000001B6969469847039B1A68AA423DD9EB
S31500002BB04FF0030A32190DF10F0300240BE0A24275
S31500002BC045460AD915F8011B03F8011F0134B4F56F
S31500002BD0806FA84608D0B442F1D2395D03F8011FD0
S31500002BE00134B4F5806FF6D1BAF1000F13D1D9F8DC
S31500002BF00830D9F800009B6801223946984782467A
S31500002C0048B9D9F80830D9F800005D683A46234635
S31500002C1004A9A8478246D9F80830D9F800005B69AC
S31500002C20984750460DF5826DBDE8F0875B682544F0
S31500002C309D4228BF4FF0030ABCE700BF30B50C4BDE
S31500002C408BB01C682822FF210546684636F032F80C
S31500002C50D4F828320749186A6A462823FFF786FF00
S31500002C6023691BB128469847002323610BB030BD6A
S31500002C70640600200800104030B54FF0AA3289B033
S31500002C804FF055330125CDE90322CDE9052204464F
S31500002C90002200F59270ADF8083001938DF80A20F5
S31500002CA08DF81C5005F0B0F82B4603AA01A928465A
S31500002CB005F0A0F800280CBF02230023C4F82C312D
S31500002CC009B030BD70B548F20B030F4D98422D6820
S31500002CD082B004460E4607D0EB689BB131462046CB
S31500002CE002B0BDE870401847D5F82C31002BF3D060
S31500002CF05368019259682846FFF7BEFFEB68019AB0
S31500002D00002BEBD102B070BD64060020012A2DE92C
S31500002D10F0417DD0022A54D06AB302EB420502EBA1
S31500002D208505AD0005F1200404440B4601F1200899
S31500002D30D3F800C05F689E68D3F80CE0C4F80CE0D6
S31500002D4010334345C4F800C06760A66004F1100460
S31500002D50EED11B6823600B685BB14C351968415195
S31500002D603421054401FB02009A889B79AB71AA8045
S31500002D700562BDE8F0810B4600F1200201F1200C4E
S31500002D801E685D689C68DF68D7601033634516600F
S31500002D905560946002F11002F2D11C685B685360C2
S31500002DA014600B68002BE4D01A68C26499889B797A
S31500002DB080F8523000F14C02A0F850100262BDE8D3
S31500002DC0F0810A684B688C68CD68C0F89450C0F8EA
S31500002DD08820C0F88C30C0F890404B690A698C692D
S31500002DE0C0F8A040C0F89820C0F89C300B68002BB3
S31500002DF0BFD01A68C0F8B42099889B7980F8BA3099
S31500002E0000F1B402A0F8B810C0F88820BDE8F0813F
S31500002E100B4600F1540201F1200C1E685D689C68A7
S31500002E20DF68D7601033634516605560946002F121
S31500002E301002F2D11B6813600B68002B99D01A6838
S31500002E40C0F8802099889B7980F8863000F180024E
S31500002E50A0F884104265BDE8F08100BFF0B583B0EC
S31500002E60154B01930F4608B311688B4205461AD1DC
S31500002E7002F13004002607222946204635F0E4FEFA
S31500002E800346062204F13F0029468BB135F0DCFEED
S31500002E9020B9AA7994F83E309A4209D00136072E15
S31500002EA004F15804E7D1054803B0F0BD044DDFE74F
S31500002EB000203E6003B0F0BD785634127A630100FC
S31500002EC00CBC03002DE9F04F1E4F85B0934681469A
S31500002ED088469A461546BF1A0024A04507EB050109
S31500002EE04FF007036A46484617D0FFF707FE4FF034
S31500002EF0FF3390B90293CDF80B30029B009A9A42A9
S31500002F0013D095F837305E1E5345F6B205D9012E1B
S31500002F1085F8376008BF8BF805400134072C05F1AA
S31500002F205805DAD105B0BDE8F08FBDF80420BDF82C
S31500002F300C309A42E5D19DF806209DF80E309A4253
S31500002F40DFD1EAE73000104070B584B001230C46AB
S31500002F508DF8041005468DF80C3029B3032918D0D6
S31500002F60002301298DF805303BD0B0F89620D0F823
S31500002F708C30ADF806200293102601A804F00CFF51
S31500002F8028B9342101FB0454A36C3343A36404B071
S31500002F9070BDDAB9B0F8CA30ADF806308DF8052044
S31500002FA0D0F8C030102607E042B1428F8DF80530C8
S31500002FB0836AADF8062020260293DEE7038FADF87C
S31500002FC006308DF80510436A1026F5E7B0F8DE30B6
S31500002FD0ADF806300222D0F8D8308DF8052040260C
S31500002FE0EAE7B0F86830ADF80630836DC3E700BF96
S31500002FF038B505460C46B9B9808EE98E30B1342312
S3150000300003FB04539A6C12F002021FD000222046E2
S3150000301004F0C4FE4FF4007228B9342101FB0454B5
S31500003020A36C1343A36438BD012916D002291BD013
S31500003030032CB0F8C810E9D1D5F8E430DB03E5D4A9
S31500003040204604F0B1FE4FF48032E5E70146204603
S3150000305004F0A4FE4FF48072DEE7B0F86400B5F821
S3150000306066100028CBD1D1E70022B5F8941020468F
S3150000307004F094FE4FF40072CEE700BF38B5154653
S31500003080044641B1FFF7F8FDD4F82C3163B184F85A
S315000030902B51002038BD102004F036FFB0FA80F026
S315000030A04009C4F82C01F2E7004838BD79630100F5
S315000030B004F082BE10B582B00C46084601A904F0A1
S315000030C0B3FE40B9204604F0A9FE0E280CBF03202B
S315000030D0002002B010BD204604F09CFEF5E700BFBC
S315000030E038B58B78012B0C4610D00878A56849783E
S315000030F001290CBF626800222B4604F09DFE23784E
S3150000310013B1607800B9A847002038BD0246087898
S31500003110497828B149B9A3681361074D0A46EBE718
S3150000312039B9A56808460A46E6E7044DA36813615F
S31500003130DEE7034DFAE700BF3D2C000071380000C2
S315000031409937000070B50346054684B000224FF05B
S31500003150FF30FF2493F83011022905D1D3F83C1132
S3150000316081423CBF0846144601320A2A03F118037D
S31500003170F0D1FF2C26D004EB4404D5F8283205EB19
S31500003180C4045E6AD4F83C31B2683068126A0E4CE8
S31500003190B3F57A7F28BF4FF47A730021C5E98831E9
S315000031A001A99047029BD5F82012B268306892694F
S315000031B0A4FB03439B0901FB03F19047B368306806
S315000031C05B68984704B070BDD34D6210184B2DE96B
S315000031D0F0411E680025344601274FF0020894F896
S315000031E03031032B10D194F84031012B02BFD4F8B3
S315000031F03831C4F83C3184F83081D4F8443118BFF2
S3150000320084F830712846984701350A2D04F11804D0
S31500003210E5D1D6F828325B6A9A6818689268002366
S31500003220C6E9883390473046BDE8F041FFF78ABFCC
S3150000323064060020F0B5D0F82832D0F820725E6A15
S31500003240B36887B05B6A0D46044601A930689847A3
S31500003250B36830681B6A03A998470DB3D4F82412E3
S31500003260C4F82472791A2046002400F1F00226469A
S31500003270032590F83031022B0CD1D0F83C318B422B
S31500003280A3EB01038FBFC0F83C31C0F83C6180F866
S315000032903051012418309042EBD13CB907B0F0BD53
S315000032A09DF80830012B06D02946DCE7094806F0D0
S315000032B09BFD07B0F0BD084AD4F82412019B049880
S315000032C0B3FBF0F3A2FB03239A09C4F82422C1EB53
S315000032D09311C8E7CD310000D34D6210F8B50F68E1
S315000032E007EB4706FF2300EBC6060B6096F8303166
S315000032F0022B04464FEA470520D000212046FFF75F
S3150000330099FFD4F828325B6A18689B6800269B6888
S31500003310C4E988669847EB1904EBC303FF222046ED
S3150000332083F83061C3F8386183F84061C3F84461BB
S31500003330C3F83421FFF706FF3046F8BD0021FFF73A
S3150000334079FFD4F828325B6A9A6818689268002375
S31500003350C4E988339047012386F830312046FFF7C9
S31500003360F1FECAE7132300220A704B80037F0B731A
S31500003370837F022B1CD8034653F81F2FC1F80E205B
S315000033809B884B82837F4B7303689BB11A68C1F895
S3150000339015209B88A1F8193003689B790B75437F2C
S315000033A0012B05D84FF00112CB76CA610020704779
S315000033B0032070470B75F2E770B5836C13F4407FFA
S315000033C088B040D10C4623F0030383640646694661
S315000033D02046FFF7C7FF0546002830D1228B1F2A5B
S315000033E02DD8618B1F292AD8A38A002B2FD12369B8
S315000033F0CDE90133B36CD80605D522B1626812B1A6
S3150000340023F01003B3649A0605D521B1A26812B160
S3150000341023F02003B364304600222146FFF776FCF2
S31500003420684604F0B7FC50B9A28AB36C002A14BFF0
S315000034300122022213432846B36408B070BD032557
S31500003440284608B070BD1E25284608B070BDE36842
S31500003450CDE90133CEE700BF01220A70837D0B73ED
S31500003460037E022B34D810B4034653F8194FC1F823
S315000034700E409B884B82037E4B730368BBB11A6870
S31500003480C1F815209B88A1F81930026805239279A6
S315000034900A754B80C37D012B05D8CB76C27F02F01F
S315000034A0FD03012B06D003205DF8044B70470B7516
S315000034B04A80EFE700230A774B7790F82020501ECA
S315000034C00228F0D818465DF8044B8A77CB77704708
S315000034D00320704770B5C36F13F4407F88B033D1B3
S315000034E00D4623F00303C367044669462846FFF7E3
S315000034F0B3FF064620BBAB8AE52B21D82A8A3ABB06
S31500003500EA68CDE90122E26FD10605D523B16B68E1
S3150000351013B122F01002E267204601222946FFF786
S31500003520F5FB684604F036FC50B92A8AE36F002A98
S3150000353014BF0122022213433046E36708B070BD70
S315000035400326304608B070BD1E26304608B070BD52
S31500003550AA68CDE90122D6E710B4034653F8124F04
S31500003560C1F80E409B884B82437C4B73037E012B34
S3150000357027D9032B21D1012B38BF01230B770368F1
S3150000358063B31A68C1F815209B88A1F8193003683F
S315000035909B790B75037E002B14BF042310234B80ED
S315000035A00023CB764B77427E501E022805D818465C
S315000035B05DF8044B8A77CB77704703205DF8044BA0
S315000035C07047002BD7D1032AF7D001230B77036866
S315000035D0002BD6D10B7510234B80E1E70B75FBE76B
S315000035E070B5D0F8B0309A0588B039D423F002030C
S315000035F0C0F8B0300A7C4B7C8DF80C200222934236
S3150000360004460D468DF8002026D869462846FFF761
S31500003610A3FF064600BBAB68D4F8B020CDE9013362
S31500003620D30607D5EB892BB16B681BB122F01002CC
S31500003630C4F8B020204629460222FFF767FB6846F9
S3150000364004F0A8FB40B9D4F8B030304643F002038A
S31500003650C4F8B03008B070BD0326304608B070BD5F
S315000036601E26304608B070BD70B5D0F8E43013F4AD
S31500003670813F88B046D123F4805323F00203C0F87B
S31500003680E4304B7C0A7C8DF80C20022B4FF00302B1
S3150000369004460D468DF8002030D869462846FFF7C7
S315000036A05BFF064650BBD4F8E430AA68D906CDE9DC
S315000036B0012207D5EA892AB16A681AB123F01003F4
S315000036C0C4F8E4305A0607D56A8C2AB1EA691AB1F9
S315000036D023F04003C4F8E430204629460322FFF7CE
S315000036E015FB684604F056FB40B9D4F8E430304682
S315000036F043F00203C4F8E43008B070BD0326304638
S3150000370008B070BD0126304608B070BDF8B5069FFA
S31500003710012A3C790E461BDD072C12D8032A12D04B
S31500003720012C10D0013CE4B2FF2C3C7125D058236B
S3150000373003FB0176154B3A46F35CFFF7C3FB00200B
S31500003740F8BD1348F8BD4FF6FF73BB800020F8BDE7
S31500003750FF2C1D4684460AD0062C9ABF0134E4B2DB
S315000037600724012A3C710AD02C700020F8BD094BB1
S315000037703B60002179710124F3E70020F8BD134670
S3150000378031463A466046FFF79DFBEDE737001040AD
S3150000379079630100785634122DE9F041324F3E68C4
S315000037A0D6F8283284B005464FF42670D3F8208028
S315000037B035F03AFA04462D49404622464FF4267320
S315000037C0FFF79CF9002D39D0224603A92846FFF7BA
S315000037D045FBA8B13B682549D3F828224FF4267348
S315000037E0106A2246FFF7C2F9204635F025FA3369FA
S315000037F01BB1284698470023336104B0BDE8F08129
S3150000380003990094034602224046FFF77FFF217981
S315000038100398FF2921D081421FD0582202FB014183
S3150000382001F1300802FB00403030414635F01AFA0B
S3150000383040465822FF2135F03DFACBE74FF41A7285
S31500003840FF2104F1300035F035FA009440462B464E
S3150000385003222946FFF75AFFBCE74FF0580808FB3A
S31500003860004000F13008E3E7640600200000104045
S3150000387008B5FFF791FFBDE808400020FFF7DEB965
S31500003880428F034642B1826A32B1816C11F0200147
S3150000389002D10122FFF758BB18460021FFF7A8BB4B
S315000038A070B584B0017843784679C57804798DF887
S315000038B0041041F2010281788DF8053001A8002339
S315000038C08DF808608DF809508DF80A408DF80C10B7
S315000038D0ADF806208DF80B3004F094FA002814BFDA
S315000038E00320002004B070BDF8B50268474B9A4229
S315000038F000F089800023464AC0F828120D46C0E928
S31500003900023380F82B31C0F82C310446106006F0E3
S3150000391019FAE869002873D0FFF7C2FF06460028A7
S315000039206ED13C4804F028FA002869D1E869A664FB
S31500003930FF23E667C4F8B060C4F8E460C4F8206109
S31500003940C4F82C61636108B1FFF7AAFFD5E901321B
S31500003950C4E90232287CC8B1EB68BBB104F06EFA48
S3150000396000284DD12B7C8BB1074607E0197904F06E
S3150000397067FA002844D12B7C9F4207DAEB6853F89C
S31500003980370003EBC70301370028EFD1287EB8B113
S315000039906B69ABB104F096FA90BB2B7E83B10746F8
S315000039A006E0197904F090FA50BB2B7E9F4207DAA5
S315000039B06B6953F8370003EBC70301370028F0D1D2
S315000039C0154804F08DFA0246D0B9234604F1F000FA
S315000039D0FF2183F8302183F84021C3F84421C3E94D
S315000039E04D1218339842F4D1D4F828325B6AD3E9E1
S315000039F00112186812689047044B23603046F8BDE0
S31500003A0003263046F8BD0E263046F8BD454C42002A
S31500003A1064060020493C0000C52C0000144B0268D7
S31500003A209A4201D00720704770B50446002506F07B
S31500003A30B1F904F0ADF9234604F1F001FF2283F851
S31500003A40305183F84051C3F84451C3E94D2518332A
S31500003A508B42F4D1D4F828325E6AB36830689B682A
S31500003A609847B3683068DB6A98472560002070BDC8
S31500003A70454C420038B50268124B9A4220D1436940
S31500003A80FF2B05460C460BD106F084F904F080F9AD
S31500003A9006F058F9204614B106F0A6F9002038BD04
S31500003AA000F11401FFF71AFCFF236B6106F072F9AF
S31500003AB004F06EF906F046F92046002CECD1EEE74C
S31500003AC0072038BD454C42004369FF2B40F0A580D6
S31500003AD0F0B597B00B7C8DF84030002205460C46B9
S31500003AE08DF84820002B56D08DF84720226892B1D9
S31500003AF0138856889088504AADF81C30ADF81E30B1
S31500003B004FF0FF3107ABCDE90123ADF82060ADF8EA
S31500003B102200099101AA6368139293B11A88464953
S31500003B205E889888ADF828200AABADF82A204FF0B9
S31500003B30FF32CDE90313ADF82C60ADF82E000C92E0
S31500003B4003ABA2681493002A73D013885188968811
S31500003B50ADF83430394AADF836304FF0FF30ADF8B5
S31500003B60381005AB0DA9ADF83A600F900691159384
S31500003B700592607C48B34FF47A7202FB00F0002392
S31500003B802A4692F83011183281B101330A2BF8D146
S31500003B902B4817B0F0BDCB681A68CDF841209A883B
S31500003BA0ADF845209B798DF847309FE703EB43023C
S31500003BB005EBC202234E012782F830716B61C2F811
S31500003BC0380182F84011C2F8446110A804F0F2F8F6
S31500003BD0637C04461BB328BB014628466E69FFF783
S31500003BE029FBD5F828325B6A18689B68C5F820421D
S31500003BF09B68C5F8244206EB4606984705EBC603C4
S31500003C000221D3F8382183F830112846C3F83C2125
S31500003C10FFF798FA204617B0F0BD082070471846FF
S31500003C2017B0F0BD05F114012846FFF757FB17B092
S31500003C30F0BD15929DE700BF600030008001900046
S31500003C407A630100B13000002DE9F04F2DED028BB3
S31500003C50B54F41F22C1398423F68A5B004460E4674
S31500003C60154600F2C88041F20113984240F2AF8037
S31500003C70A0F58853023B2A2B00F29F80DFE813F061
S31500003C805E012D011C0114010301F100E500EA00AB
S31500003C909D009D0035023D0239022A029D009D00CD
S31500003CA09D009D009D009D009D009D009D001302AE
S31500003CB09D009D009D00F401F0019D009D009D006A
S31500003CC09D009D009D009D009D009D009D009D0006
S31500003CD09D009D00E101002E6FD1D7F82832D5F85E
S31500003CE004B0D3F820904FF4267034F09DFF804640
S31500003CF0002862D002468D494FF426734846FEF7E7
S31500003D00FDFE002856D10BF1020A50460FA9424685
S31500003D10FFF7A4F8002840F0AB83002308EE103A22
S31500003D200DAB08EE903A0F9BDAF80000804A02933A
S31500003D30582101FB03FC0CF13001624448F80100F4
S31500003D4008EB01009AF80610BAF804E08171794987
S31500003D50A0F804E00A6003C90CF13C0008EB000E71
S31500003D6008EB0C0A48F80020AEF80410412272490C
S31500003D700AF1440034F076FF029BDBF80920CAF80A
S31500003D803820194618EE102A18EE903ACDF8008021
S31500003D904846FFF7BBFC0F9B9DF83420634958202B
S31500003DA000FB0383484683F837204FF426734246C8
S31500003DB0FEF7DCFE404634F03FFFBB682A4631463C
S31500003DC02046984725B0BDEC028BBDE8F08F41F246
S31500003DD00203984200F0DA8141F204039842ECD1E2
S31500003DE0536818689A889B7987F82A31C7F824019E
S31500003DF0A7F82821E1E700F56B43FF339BB2092BB7
S31500003E00DBD8A4F5A053013B092BD6D801A252F862
S31500003E1023F000BF37400000BB3D0000BB3D000063
S31500003E20BB3D0000BB3D0000D73C0000BB3D000091
S31500003E30174000000D400000FD3F0000B7F8DE30DF
S31500003E401BB1D7F8D830002B41D103213846FFF7F4
S31500003E50CFF8B2E7D7F8E43023F48033C7F8E4307C
S31500003E60ABE7D7F8E430DB04A7D5B7F8CA30002BA8
S31500003E70E4D0D7F8C030002BE0D00022032138462A
S31500003E80FFF762F899E76A681378012B00F2F88168
S31500003E905178022900F07782342202FB03739A6C70
S31500003EA022F440729A6488E76B681B78342202FB1E
S31500003EB0037300229A6480E76B681978002900F082
S31500003EC0FD814A1E012AC1D95B78002BBDD1022291
S31500003ED003213846FFF738F86FE76B681978012930
S31500003EE000F01D82022900F00682002900F0EE8112
S31500003EF0D7F8E4309A077FF560AF03238DF83C309E
S31500003F00B7F8DC30ADF8403000220FA8ADF84230EB
S31500003F10ADF83E2003F046FFD7F8E43043F4805373
S31500003F20C7F8E43049E700BF6406002000001040EF
S31500003F3044001040AC06002068060020D7F8F810B0
S31500003F4000293FF43AAFB7F80021002A3FF435AF15
S31500003F5068680378012B00F06482022B00F05B8214
S31500003F60002B7FF42FAF4368D3F80CB01B7A029373
S31500003F700298831A01333FF425AF00283FF422AF9D
S31500003F8097F8040104904FF000080BF10203DDF8E6
S31500003F9010900597CDE90665DDF808A00393404625
S31500003FA00F46049407E00234A0441FFA88F8C2457D
S31500003FB040467FF607AF0BEB00031BF800405B782B
S31500003FC0013C4B45E4B2EED1002CECD0039B0294AD
S31500003FD0851C184406195D44144602E0AE4200F002
S31500003FE0CF81284622463946013534F02DFE002879
S31500003FF0F4D1DDE90447DDE90665DEE668680023FD
S3150000400042684188008803F011FFD6E66B6818887D
S3150000401003F00EFFD1E66B68DFF834C3D96853F8B6
S315000040200C0FCCF800009B88ACF804304122C54840
S3150000403034F018FEC1E66B680021188803F0ECFE28
S31500004040BBE6D7F82C31042B7FF4B7AE012003F082
S31500004050D3FE00280CBF08230023C7F82C31ACE69A
S315000040600023C7F82C31A8E6D7F82C31002B3FF4F3
S31500004070A4AE6B681A78012A7FF49FAE4FF05533D1
S315000040804FF0000C0FA807F22B11ADF840300F933C
S315000040908DF842C003F09CFE00280CBF04230023C9
S315000040A0C7F82C3189E66B685988B3F804E0B3F891
S315000040B006C0ADF83C1019891888ADF842100022E8
S315000040C00FAB0221ADF83EE0ADF840C0119203F00F
S315000040D06FFE72E66B689B78002B7FF46EAE07F17D
S315000040E014013846FFF7FAF867E60023C7F82031CF
S315000040F063E600293FF461AEF1E7D7F82031D9072E
S3150000410040F1C780D7F8F02023F00203C7F820312A
S31500004110002A00F01F81D7F8F43009A91091002B6E
S3150000412000F05C8100210BA88DF83C10119097F8E7
S3150000413002018DF83D008DF83410ADF8381097F86F
S3150000414003118DF835105188107AD2888DF8240025
S31500004150ADF82610ADF828205A88197ADB888DF834
S315000041602C10ADF82E20ADF83030B7F8FE30ADF893
S3150000417036300DA90FA803F02DFED7F8203123F015
S31500004180010343F00203C7F8203116E603F028FEC8
S315000041900DF13C09D7F82832542200214846D3F8BD
S315000041A020A034F087FD4FF4267034F03DFD8046A4
S315000041B0B8B34FF42673424663495046FEF79EFC59
S315000041C0624BD8F800209A4228D198F80420531E52
S315000041D0DBB2FD2B22D8072A20D808F130034A4645
S315000041E00120A246AB4603F1140103F1080503F1D1
S315000041F00C04C2E900359460D96098F804E086455D
S31500004200C1B202F10C0203F1580300F10100EADC2D
S315000042100DAA484654465D4603F00CFE404634F06F
S315000042200BFDD7F828323020D3F820A034F0FCFC60
S31500004230804600283FF4C1AD4349504630234246EC
S31500004240FEF75CFC00287FF4B5AD404BD8F80020A3
S315000042509A427FF4AFAD08F108030FCB89E80F004F
S31500004260D8E90A010B0C0D904046ADF838108DF8D0
S315000042703A3034F0E1FC49460DA803F0C5FD9CE553
S31500004280022B0ED1D7F8B03023F40073C7F8B03044
S3150000429093E59A077FF591AD23F00203C7F8203125
S315000042A08BE5D7F8E43023F40072D803C7F8E4208E
S315000042B07FF583AD032003F079FD7EE55B78384614
S315000042C0002B7FF4C4ADFFF7DBFA76E5BB6C9907EC
S315000042D03FF473AD3A8F002A00F099807A6A002A7B
S315000042E000F0958013F0100240F091801146384698
S315000042F0FEF72AFE61E5D7F8B03098077FF55DAD89
S31500004300B7F89630002B00F09280D7F88C30002B4F
S3150000431000F08D8000223846FEF716FE4DE5FB6F55
S315000043209A073FF44AADB7F86820002A00F0848067
S31500004330BA6D002A00F0808013F0100238463FF470
S31500004340C9AD84E568060020000010407856341296
S31500004350AC060020D7F8F4301092002B78D00BA9C9
S315000043608DF83C20119197F802118DF83D108DF8CB
S315000043703420ADF8382097F803218DF83520EBE688
S315000043802246029C0FE64FF0340808FB0370816C4E
S3150000439011F4807F55D021F480710DF13C098164C0
S315000043A002924946002B7BD107F12000FEF7DAFF87
S315000043B0029A137808FB0378D8F83030CDE9103329
S315000043C04846029203F0E6FC029A1378342202FB76
S315000043D003739A6C42F002029A64EEE48DF83C3064
S315000043E0119397F802118DF83D108DF83430ADF821
S315000043F0383097F803318DF835305188107AD388E4
S315000044008DF82400ADF82610ADF82830ADE6384614
S31500004410FFF736FAD1E44368D3F808B09B790293E4
S31500004420A6E54368D3F820B01B7F0293A0E50221DE
S315000044303846FEF7DDFDC0E401213846FEF7D8FD1B
S31500004440BBE48B057FF5B9AC21F400718164B4E45B
S3150000445011938DF83C3097F802218DF83D208DF8A8
S315000044603430ADF8383097F803318DF835307CE6C6
S315000044700FA942463046FEF7F1FC00283FF44DAC4A
S315000044800DAB1A4608EE903A0C4901234846FEF752
S3150000449035FB9DF834300F93012308EE103A42E4C1
S315000044A007F15400FEF7D8FF029A137808FB037849
S315000044B0D8F82C30CDE9103382E700BF0500104054
S315000044C02DE9F0410B688AB00E460446002B00F039
S315000044D09E80486801A90891002800F08E801D88FA
S315000044E003AA032D099240F28E805D88032D40F2C7
S315000044F08A809D88032D40F28680DD88032D40F258
S3150000450082801B7A012B7ED80B46002840F08580DE
S31500004510318AE52977D831687068B568F768C4F8D4
S31500004520FC70C4F8F010C4F8F400C4F8F8507069D0
S315000045303169C4F80011C4F804013068002800F09D
S31500004540B780076845688068C4F8100104F584716F
S31500004550C4F8F010C4F80871C4F80C517568002D41
S315000045606CD06F68D5F80080D5F808E094F802C1E1
S31500004570C4F81871002594F80371C4F8148104F581
S315000045808A70C4F8F400C4F81CE18DF81C508DF84C
S315000045901450ADF818508DF81DC08DF8157069B11E
S315000045A063B1B4F8FC500F7A1F70002D60D00F88ED
S315000045B0898899805F80ADF8165060B15AB1B4F819
S315000045C0FC30017A1170002B66D0058881889180B5
S315000045D05580ADF8163005A907A803F0FBFB90B986
S315000045E0B389002B4FD1D4F82021184642F002029D
S315000045F0C4F820210AB0BDE8F0811D880990032D7A
S3150000460002463FF672AF03200AB0BDE8F081486863
S315000046100893002849D003AA099201880329F2D9F0
S3150000462041880329EFD981880329ECD9C188032958
S31500004630E9D9017A01297FF66BAFE4E794F8030123
S3150000464094F802718DF815008DF81C50D4F8F4001A
S315000046508DF81450ADF818508DF81D700029ACD0A7
S31500004660002BAAD0B4F8FC500F7A1F70002D9ED1F3
S315000046704F88CD88B4F8FE105F809D80ADF8161087
S3150000468000289BD1A7E7D4F8203143F00103C4F8F2
S3150000469020310AB0BDE8F0814588C188B4F8FE3003
S315000046A055809180ADF8163095E709931A462FE7A5
S315000046B0D4F8F01052E700BF704700BF01207047E2
S315000046C038B5064B1B68D3F828420D4613460146FB
S315000046D02A46206AFEF712FA002038BD640600203A
S315000046E038B5064B1B68D3F828420D4613460146DB
S315000046F02A46206AFEF73AFA002038BD64060020F2
S3150000470000B5064B83B0186801900121FEF792FDB3
S31500004710019803B05DF804EBFEF714BD64060020B3
S3150000472030B4D0E9073200214160917093F9053029
S31500004730264A5D092035012403F01F0304FA03F31A
S3150000474042F82530BFF34F8FBFF36F8FC36993F9DC
S315000047500B305D09203503F01F0304FA03F342F81A
S315000047602530BFF34F8FBFF36F8FC36993F90730BF
S315000047705D09203503F01F0304FA03F342F82530E0
S31500004780BFF34F8FBFF36F8FC36993F909305D098C
S31500004790203503F01F0304FA03F342F82530BFF374
S315000047A04F8FBFF36F8FEFF3108584F31088C369C3
S315000047B0074A1C7850684FF00043E34003435360B8
S315000047C0536885F31088084630BC704700E100E066
S315000047D0FC6F0440C0E905120020704770B4046AFB
S315000047E08378A57805F07B05A5708578A67803F013
S315000047F0030305F00305D21A46F080060B44022D8A
S31500004800C0E90332A67004D00B78E370002070BCB8
S3150000481070470B8843F47E43E381002070BC7047E9
S31500004820C0E90A3241620020704700BF036A70B4D3
S315000048309C78002604F00B029A70C6608A785A703B
S3150000484048781D780A7860F301051D70C978997457
S31500004850D97902F05C0201F0A30104F07B040A435B
S315000048603046DA719C7070BC704700BF4FF0FF3362
S31500004870C1E90033002070470346880711D5186A3E
S31500004880827810B4C9074FF0000402F07B028270F0
S31500004890204648BF00201C6148BF98615DF8044B64
S315000048A07047CA074FF0060044BF00209861704762
S315000048B083690B600023836118467047F0B5846AEC
S315000048C085B005460F469446BCB194E80F006E4687
S315000048D086E80F00EB691A7884F804C0EB6A226058
S315000048E0C4E9027320466B6A9847AC6A1CB196E825
S315000048F00F0084E80F0005B0F0BD6E463446E9E7C8
S315000049002DE9F0470A78034602F100728078D961F2
S31500004910002402F560521C700125520165F3010066
S315000049204D691A628A695D62C3E90A4298704A78DB
S31500004930022A03D1C0B262F30100987091F90B50BC
S31500004940B34A8E7A6809203005F01F07012404FA5D
S3150000495007F742F82070BFF34F8FBFF36F8FAD4854
S31500004960AD4F05F1C00C02EB050850F82CE03601FE
S31500004970F6B26FF3104E40F82CE088F8006347F863
S31500004980253091F905500E794FEA551C0CF1200C93
S3150000499005F01F0E04FA0EFE42F82CE0BFF34F8F0F
S315000049A0BFF36F8F05F1C00C02EB050850F82CE041
S315000049B03601F6B26FF3104E40F82CE088F800632B
S315000049C047F8253091F907508E794FEA551C0CF1BE
S315000049D0200C05F01F0E04FA0EFE42F82CE0BFF381
S315000049E04F8FBFF36F8F05F1C00C02EB050850F82F
S315000049F02CE03601F6B26FF3104E40F82CE088F842
S31500004A00006347F8253091F909500E7A4FEA551C94
S31500004A100CF1200C05F01F0E04FA0EFE42F82CE0F5
S31500004A20BFF34F8FBFF36F8F05F1C00C2A4450F8C8
S31500004A302CE03601F6B26FF3104E40F82CE082F807
S31500004A40006347F82530EFF3108584F31088734A26
S31500004A500E7850684FF00044F44020EA040050609D
S31500004A60526885F310881A6A00209070107150728F
S31500004A709072D07250830D7840F21324EC40E40714
S31500004A8044BF4020D0740320E840C00748BF4FF41D
S31500004A9078404FF00604147748BF9082C8784C7867
S31500004AA08D78C000012C40EA051000F0AD80022C84
S31500004AB014BFF224E224CD69C0B210709471297B30
S31500004AC0490001F00201517300246978A878147234
S31500004AD02F78C9014001BC1EC9B200F02000012C8C
S31500004AE041EA000140F287806868C9B2D1718178D5
S31500004AF0517014784678017866F301041470C07812
S31500004B009074D07901F05C0100F0A3000143D171EB
S31500004B100020C3E90300C3E90500D3F81C803D4C1F
S31500004B2098F90560DFF8F8C006F1C00E710954F86F
S31500004B302E90890060F3104901F1604144F82E90EF
S31500004B4001F561414FF0010E06F01F060EFA06F65A
S31500004B50C1F880610E6098F90B6006F1C009710911
S31500004B6054F829A0890001F1604160F3104A01F56B
S31500004B70614106F01F0644F829A00EFA06F6C1F8B0
S31500004B8080610E6098F9076006F1C009710954F852
S31500004B9029A0890001F1604101F5614160F3104AE5
S31500004BA006F01F0644F829A00EFA06F6C1F8806141
S31500004BB00E6098F9096006F1C008710954F828904A
S31500004BC0890060F3104944F8289001F1604101F52D
S31500004BD0614106F01F0407F003076D890EFA04F41D
S31500004BE047F07007C1F880410C6097701D81C3F8CB
S31500004BF004C0BDE8F087022F08BF41F01001FF2076
S31500004C00C9B25070D17183E740F04000F22452E7F8
S31500004C1000E100E00060004098880020FC6F04403E
S31500004C205549435330B4EFF30383103B5BB203F1B2
S31500004C30C0011B4A1B4C52F821006FF3104042F88A
S31500004C40210054F82300C3691B691BB103691BB11A
S31500004C5030BC7047036963B9026A937803F07F0337
S31500004C6043F004030021937030BCC1608022FFF73B
S31500004C7025BE827802F003010229C16809D0046AC0
S31500004C800D78E57002F003029B1A0A44C0E903237B
S31500004C90DDE70C88056A44F47E44EC81F2E700BF48
S31500004CA0006000409888002010B582B0EFF30383BF
S31500004CB0103B5BB203F1C0011C4A1D4C52F82100A7
S31500004CC06FF3104042F8210054F82340A27802F016
S31500004CD00303022B236A0CBF198A5979A3690CBFF7
S31500004CE0C1F30801C9B2019133B92046042202B0CA
S31500004CF0BDE81040FFF7E2BD02F0030201A96069BA
S31500004D0033F0B0FFD4E90521A37803F003031A4476
S31500004D10C91AC4E9052109B102B010BD2046012215
S31500004D2002B0BDE81040FFF7C9BD00BF00600040FB
S31500004D309888002010B5EFF30384103C0A4B64B248
S31500004D40002153F82400026A937803F07B039370E2
S31500004D500222FFF7B3FDC034044B53F824206FF34F
S31500004D60104243F8242010BD9888002000600040BF
S31500004D7038B5EFF30384103C144B64B253F82400A7
S31500004D80837803F00303022B036A0CBF198A59794F
S31500004D901D790CBFC1F30801C9B205F03802ED0652
S31500004DA004D51D7FED0758BF42F040021D7905F07E
S31500004DB0C7051D71FFF782FDC034054B53F824204B
S31500004DC06FF3104243F8242038BD00BF98880020B6
S31500004DD000600040062070470023036018467047B5
S31500004DE070B50446012001F03FFB1E4A92F8A03040
S31500004DF0D906FBD41B4A92F8AA30C3F30011DB068E
S31500004E00F9D4237863B1022B14D00B46227F1649BE
S31500004E10A068C1F8A001920342F4004292B200E0F9
S31500004E201A46104901208A8181F8923001F0ECFA85
S31500004E30002070BD23690C496669C2F89830A57ECA
S31500004E40B1F80002334365F30800E57EA1F80002DD
S31500004E500CBF01230023217E82F8941043EA450308
S31500004E60DBB2D3E700E001400060004010B5044625
S31500004E7008466160FFF7B4FF08B9014B236010BD17
S31500004E804D504C5241600846FFF7AABF2A4A10B55A
S31500004E90044692F8A030DB06FBD4274A92F8AA30E3
S31500004EA0D806FBD49389190413D463681B78022BA4
S31500004EB02DD0BFF34F8F30BF1F4A616892F89230F2
S31500004EC06FF3C71382F892300B78022B2ED0002096
S31500004ED010BD92F8263092F89220D207DBB20CD59C
S31500004EE013BB164B1B78012B1ED1154B1B78012BC0
S31500004EF01AD1144B1B78012B16D1012001F0B4FAFC
S31500004F00002001F0B1FA63681B78022BD1D1012091
S31500004F1001F0AAFA084B93F8922042F0800283F837
S31500004F20922093F89230C4E7052010BD012001F0CD
S31500004F306BFA002010BD00BF00E0014038E00140E0
S31500004F4032E001402AE00140002303601846704722
S31500004F500B0A1B0153FA81F1034B53F82130C3F3BB
S31500004F60400313700020704700080440090A4901F5
S31500004F7001F1804101F5802100204B6813807047C4
S31500004F80090A490101F1804123EA020001F5802165
S31500004F90134043EA00438B6000207047C8B20123E8
S31500004FA083404AB91A040B0A5B0103F1804303F5F7
S31500004FB0802300209A6070479AB2F4E7090A4901F3
S31500004FC001F1804101F5802110B40C6802EA03006A
S31500004FD0204380B262EA030303405DF8044B0B6092
S31500004FE000207047090A490101F1804101F580213D
S31500004FF000204B68C3F30F43138070470B0A5B0115
S3150000500003F1804303F58023C9B25868012303FAEC
S3150000501001F101EA104089B2411AB1FA81F1490958
S3150000502011700020704700BF090A490101F1804153
S3150000503023EA020001F58021134043EA0043CB60D6
S31500005040002070470B0A5B0103F18043012A03F538
S315000050508023C9B209D0D8684FF480328A4002430F
S31500005060120C1204DA6000207047D8688A400243A6
S3150000507092B2DA600020704706207047F8B5002823
S315000050804DD00B680024043303EBC001254640F2E3
S31500005090024040F2034640F204470FE0B24230D1EC
S315000050A053F8042C02F0B852B2F1807F14BF44F0DA
S315000050B0020445F0020508338B4211D01A88824259
S315000050C0ECD153F8042C02F0B852B2F1807F03F110
S315000050D0080314BF44F0010445F001058B42EDD1ED
S315000050E0E443E4B2012001F0BFF90E4B93F8BB0490
S315000050F02843044083F8BB440120BDE8F84001F092
S3150000510083B9BA42D7D153F8042C02F0B852B2F19F
S31500005110807F0CBF45F0040544F00404CBE7054648
S31500005120FF24DFE700E001400146F8B5044631F808
S31500005130040BFFF7A3FFEFF31082012383F310881C
S31500005140DFF89CC0DCF800301BB923494020CB7047
S31500005150C870DCF800300133CCF8003082F31088D8
S31500005160278817B362681D4D013FBFB202F10801DF
S3150000517001EBC70700E0083110689288130AD4B221
S31500005180C20304EB031609D555F826E020F4803255
S315000051906FF3104E45F826E045F826201B01234400
S315000051A08F4245F823000A46E5D1EFF3108201232A
S315000051B083F31088DCF8003023B1DCF80030013BC3
S315000051C0CCF80030DCF800301BB903498020CB70E6
S315000051D0C87082F31088F8BD000D04400008044032
S315000051E09488002008B5034B03600846FFF79CFF30
S315000051F0002008BD54524F5008B50846FFF794FFEB
S31500005200002008BDF0B5012685B00C4602AB30463D
S3150000521001A91546ADF80C400292ADF80060019365
S31500005220FFF72CFFEFF3108286F310881D490B68F9
S315000052301BB91D484026C370C6700B6801330B604E
S3150000524082F31088EA034FEA14231AD41B01E4B24E
S31500005250164A234442F82350EFF31082012383F3C6
S3150000526010880B6813B10B68013B0B600B681BB908
S315000052700D498020CB70C87082F31088002005B0DD
S31500005280F0BDE4B204EB0310084A52F8207025F48E
S3150000529080366FF3104742F820701B0142F82060F9
S315000052A0D6E700BF94880020000D044000080440A3
S315000052B0F0B591F902400471A300D1E902C503F1EA
S315000052C0804303F5C0430022D3F80073C3F80023DC
S315000052D0C0E902C5114E0D784571725591F804E08A
S315000052E0CA7891F805C042EA0E1242EACC12D2B24E
S315000052F0002C7255C3F800730BDB4B78084904F198
S3150000530060421B0102F56142DBB282F8003341F8CC
S315000053102400044B03600020F0BD00BF0060004085
S31500005320988800205543490030B490F904200D4C6C
S3150000533002F1C000530954F820509B006FF310454A
S3150000534003F1604344F8205003F5614302F01F0265
S31500005350012101FA02F20020C3F8802130BC1A6054
S31500005360704700BF0060004090F9043007485A09B2
S315000053700121203203F01F0301FA03F340F8223023
S31500005380BFF34F8FBFF36F8F0020704700E100E03F
S31500005390C0E902120020704790F90430002B1ADB96
S315000053A05A0910B420320E4C012103F01F0301FAF2
S315000053B003F344F82230BFF34F8FBFF36F8F094BCF
S315000053C090F904205DF8044B002143F822100023D5
S315000053D0036018467047002303601846704700BFF5
S315000053E000E100E09888002010B582B0EFF3038456
S315000053F0103C164B164964B253F8242050790B5CC6
S3150000540003F00303032B0FD0C03451F824306FF39D
S31500005410104341F82430936823B1D268CDE90020C7
S315000054206846984702B010BD936823B1D268CDE9AB
S31500005430002068469847064BC03453F824206FF383
S31500005440104243F8242002B010BD00BF9888002007
S31500005450006000400346D3E90223002093607047B2
S315000054600346D3E902230020536070470346D3E97D
S3150000547002230020D36070470346D3E90123D26993
S31500005480F0B4D2E90347D2E90115566945F0004563
S3150000549044F0004441F000425D6100209C611A61C5
S315000054A05F629E62F0BC704783684FF00042002046
S315000054B01A615A619A615862986270478368013925
S315000054C09966DA6AD20702D4C2685966DA600020A1
S315000054D0704700BF06207047826830B4536E0B4D8C
S315000054E00B4C01338B60D06A2A6A2368C2F30264CC
S315000054F0A34002F00702C0F3C350D340C3400122C9
S31500005500002030BC4B600A70704700BF00E00140CD
S31500005510080700208268D36AC3F300030B71936CFB
S315000055200B600020704700BFC0E9063241610020D1
S31500005530704700BF002824DB30B400F16043114DF2
S31500005540114C03F561430901C9B283F8001345F80C
S31500005550202000F1C001430954F821509B006FF34D
S31500005560104503F1604344F8215003F5614300F010
S315000055701F00012202FA00F0C3F8800130BC186057
S31500005580704770479888002000600040F8B50B7C93
S315000055900D46012101FA03F2C26012071ABF00226A
S315000055A0027401740446456003F58003D5E90501DC
S315000055B003F5F0631B020022C4E90621EE69A3602D
S315000055C06061EFF31080012383F310882C4B2F7C4E
S315000055D0D968042F34BF6FF020076FF040073940B9
S315000055E0D960DB6880F31088A3686868F16AD6F82A
S315000055F018E0D6F81CC04FF425471F60DA62DA635C
S315000056009A642F7AFF05DF6201384FF000471F6169
S315000056105F619F615A629A62C3F81CE0C3F820C0BA
S31500005620986658669A63C3F8882031B996F82110AF
S3150000563096F82020490741EA4231E2684FF4AA0071
S315000056401864DA6003200122596318631A63697CBF
S3150000565095F912002246FFF76DFF96F8221096F98B
S3150000566024002246FFF766FF96F9250096F82310D8
S315000056702246FFF75FFF034B23600020F8BD00BF03
S31500005680FC6F044054504700F0B5836985B004466A
S315000056900F4616469BB193E8070001AD85E8070063
S315000056A01F71E2691A609E60184663699847A3698C
S315000056B01BB195E8070083E8070005B0F0BD01AD12
S315000056C02B46EDE7430910B40949203300F01F04C7
S315000056D00122A24041F82320BFF34F8FBFF36F8F03
S315000056E0044B5DF8044B002243F82020704700BFAE
S315000056F000E100E09888002010B5D0E90224436854
S31500005700002101609460516393F91200DC698842BC
S3150000571001DBFFF7D7FF94F92400002801DBFFF730
S31500005720D1FF94F92500002801DBFFF7CBFF00200D
S3150000573010BD00BFF0B4EFF30383103B5BB2174A12
S31500005740174C03F1C00152F821006FF3104042F8E4
S31500005750210054F8230044682478012C15D1D0E99F
S315000057600265B5600025B564F564356552F82160BB
S315000057700C4F65F310465D09603503F01F0304FA0C
S3150000578003F342F8216047F82530436923B100222C
S31500005790F0BC1146FFF778BFF0BC704700600040D0
S315000057A09888002000E100E0054A43F6B273002025
S315000057B0D35A03F08103003B18BF01230B707047D7
S315000057C000C07E40062070470620704706207047BE
S315000057D0062070470648074A0B4603C883E80300BD
S315000057E092E80300083383E803000020704700BFF7
S315000057F0E8BC0300F0BC030043680022026093F992
S31500005800113013F1210F0DD05A090748203201211A
S3150000581003F01F0301FA03F340F82230BFF34F8F62
S31500005820BFF36F8F0020704700E100E0062070474D
S3150000583000EB40004000032804D98008A0F10100D5
S315000058400028FBD1704700BF30B51A4B83B0082241
S315000058504FF49645A524F7210195C3F8804183F8B6
